:107800001F92CDB7DEB7112414B714BE85E0809364
:10781000810082E08093C00088E18093C10086E00F
:107820008093C20080E18093C40011FDB0C080E06D
:1078300061D18BE74CD194B19C6294B9529A5A9A17
:107840002A9A9CB590659CBD5A988FE96ED180E0CC
:107850006CD1082F5A9A3BD101500E3F08F095C0C9
:1078600061E081E070D180E060D15A9A60E070E020
:10787000CB0178D1863409F081C061E070E080E00E
:1078800090E070D18C3409F079C062E070E080E063
:1078900090E068D1883509F071C066E070E080E062
:1078A00090E060D18A3309F069C069E070E080E05F
:1078B00090E058D18A3309F061C086E408D167E0CE
:1078C00070E080E090E04ED1082F68E070E080E04A
:1078D00090E048D1202F30E0322F22273901682A4A
:1078E00060FC53C01D9AC12CD12C00E010E0BB24D9
:1078F000B39443E0A42E55E0952E0615170508F025
:1079000030C08AE2E4D0B801665F7F4F80E090E04B
:1079100029D1E82EF12CB801655F7F4F80E090E01F
:1079200021D1F82AF8010701B7BEE89511240E5FAE
:107930001F4FC8018F779927892B19F00615170556
:10794000E1F6F601A7BEE89507B600FCFDCFF6010B
:1079500097BEE89507B600FCFDCFF0E8CF0ED11C2E
:10796000CCCF1D9881E187BFE89585E4B0D061E078
:1079700080E6E9D05A9A8FE0BDD0FFCF81E2A7D050
:107980009CB59F7B9CBD8DE7A2D0812FC8D08EE097
:10799000B1D0259A86E028E13EEF91E03093850052
:1079A0002093840096BBB09BFECF1D9AA895815072
:1079B000A9F7812C912C13E001E025E0F22E31E1B2
:1079C000E32E8CD0813479F489D0898399D0898150
:1079D000823811F482E005C0813811F486E001C0DC
:1079E00083E075D071C0823411F484E103C0853422
:1079F00019F485E08DD068C0853549F46FD0D82E54
:107A00006DD08D2C912C982A880C991C5CC08635E1
:107A100021F484E07DD080E0E4CF843609F036C0E4
:107A20005DD05CD0B82E5AD0A82EC12CDD24D394C2
:107A300055D0F60181936F01BE12FACF61D0F5E403
:107A4000AF1201C0FFCFF40117BFE89507B600FCE5
:107A5000FDCFA401A0E0B1E02C911296CD010197D9
:107A6000FC01808130E0382BFA01090107BFE8955D
:107A700011244E5F5F4FBA12EFCFF401F7BEE895C5
:107A800007B600FCFDCFE7BEE8951EC0843771F451
:107A900025D024D0D82E22D033D05401F5018591A1
:107AA0005F0115D0DA94D110F9CF0EC0853739F4C3
:107AB00027D08EE10CD085E90AD08FE092CF8135B6
:107AC00011F488E017D01CD080E101D07ACF9091DA
:107AD000C00095FFFCCF8093C60008958091C00040
:107AE00087FFFCCF8091C00084FD01C0A8958091E4
:107AF000C6000895E0E6F0E098E190838083089561
:107B0000EDDF803219F088E0F5DFFFCF84E1DFCFD1
:107B1000CF93C82FE3DFC150E9F7CF91F1CF282EE3
:107B200080E0E8DFE0E0FF2709948EBD0DB407FE9A
:107B3000FDCF8EB508955A9885E0F7DF80E0F5DF38
:107B40005A9A81700895CF93C82F662321F060E080
:107B500086E0F9DF5A9AEFDF8111FDCF5A988C2F1A
:107B6000CF91E3CFCF92DF92EF92FF926B017C0136
:107B700060E083E0E8DF8E2DD8DF8D2DD6DF8C2D01
:107B8000D4DF80E0D2DF5A9AFF90EF90DF90CF9061
:027B9000089556
:027FFE00020679
:040000030000780081
:00000001FF
